:100000000C9446000C9465000C9465000C946500FB
:100010000C9465000C94E8020C9465000C94650047
:100020000C9465000C9465000C9465000C946500BC
:100030000C9465000C9465000C9465000C946500AC
:100040000C9465000C9465000C9497010C94650069
:100050000C9465000C9465000C9465000C9465008C
:100060000C9465000C9465000C9465000C9465007C
:100070000C9465000C9465000C9465000C9465006C
:100080000C9465000C9465000C94650011241FBE4F
:10009000CFEFD0E1DEBFCDBF11E0A0E0B1E0E2E103
:1000A000F7E000E00BBF02C007900D92AE3CB10735
:1000B000D9F711E0AEECB1E001C01D92AC3DB10743
:1000C000E1F70E940A030C9487030C940000DA9A6B
:1000D00081E2982F9A95F1F7DA988A95F1F70895C9
:1000E000D898282F207F2BBBDA9A21E2922F9A955D
:1000F000F1F7DA98922F9A95F1F790E034E0880FB3
:10010000991F3A95E1F78BBBDA9A822F8A95F1F71E
:10011000DA982A95F1F708958FEF8ABB81E00E9463
:10012000700082E00E94700088E20E9470008EE001
:100130000E94700080E80E9470000895D89A982F5D
:10014000907F91609BBBDA9A91E2292F2A95F1F773
:10015000DA98292F2A95F1F78295807F81608BBBF1
:10016000DA9A892F8A95F1F7DA989A95F1F7089536
:10017000FF920F931F93CF93DF938C01D89AC0E027
:10018000D0E041E2F42E29C0C031D10524F49E0113
:100190002058822F04C0CE018F70907080540E942E
:1001A0007000F80191918F01892F807F83608BBB54
:1001B000DA9A8F2D8A95F1F7DA988F2D8A95F1F7D3
:1001C0009295907F93609BBBDA9A8F2D8A95F1F779
:1001D000DA988F2D8A95F1F72196F801808188238E
:1001E00099F6DF91CF911F910F91FF900895803183
:1001F00010F480580EC080E091E00E94B80080E1C9
:1002000097E229E130E0F9013197F1F70197D9F749
:1002100081E00E9470000895803110F48C5E0EC061
:1002200080E091E00E94B80080E197E229E130E0AF
:10023000F9013197F1F70197D9F781E00E94700039
:1002400008950F931F93DF93CF93CDB7DEB72C970D
:100250000FB6F894DEBF0FBECDBF9C01009721F40E
:1002600080E30E949E0042C08E010F5F1F4FE0E0BE
:10027000F0E0C9016AE070E00E947303D8018D9339
:100280009D938D01C9016AE070E00E9473039B0198
:1002900031966115710569F73197EE0FFF1FDE0189
:1002A0001196AE0FBF1FAE014150504021E21BC05E
:1002B0009C91892F805D807F83608BBBDA9A822F2F
:1002C0008A95F1F7DA98822F8A95F1F79295907FC7
:1002D00093609BBBDA9A822F8A95F1F7DA98822F86
:1002E0008A95F1F71297A417B50711F72C960FB658
:1002F000F894DEBF0FBECDBFCF91DF911F910F915C
:1003000008950F931F93CF93DF93EC0108E813E157
:1003100006C00E949E002196C8010197F1F78881CE
:100320008823B9F7DF91CF911F910F9108951F9204
:100330000F920FB60F920BB60F9211242F933F938B
:100340004F935F936F937F938F939F93AF93BF93DD
:10035000EF93FF93DF93CF93CDB7DEB72897DEBF40
:10036000CDBFDE011196E5ECF1E088E001900D9241
:100370008150E1F78091620082608093620081E0A9
:1003800090E09093D5018093D4018091CE0190911B
:10039000CF0101969093CF018093CE012CB12053D1
:1003A0002093D8018130910519F42093DB0159C0C5
:1003B0008230910519F42093D90153C083309105FF
:1003C00019F42093DA014DC0099709F04AC0109240
:1003D000CF011092CE018091DB0124E6829FC00103
:1003E00011242091D9014AE0249F90011124820F09
:1003F000931F2091DA01820F911D9093D701809372
:10040000D60184E90E9470008DE091E00E94810194
:1004100084ED0E9470008DE191E00E948101809145
:10042000D6019091D7010E94210183E291E00E94C0
:100430008101A091D201B091D301A930B10540F45E
:100440008FE080936500AC0FBD1F8C9185BB09C008
:100450008FEF85BBFE013897EA0FFB1F80818093E9
:1004600065002896DEBFCDBFCF91DF91FF91EF9160
:10047000BF91AF919F918F917F916F915F914F91BC
:100480003F912F910F900BBE0F900FBE0F901F90BA
:10049000189580EC0E9470008091D2019091D30158
:1004A0008630910509F44EC087309105A0F4833061
:1004B0009105B9F18430910538F48130910529F125
:1004C000029709F07AC026C08430910579F105972A
:1004D00009F073C032C08930910509F44AC08A30EE
:1004E000910538F48730910581F1089709F065C0CE
:1004F00036C08B30910509F450C08B30910508F45B
:1005000042C00C9709F059C054C08091D00180FDC1
:1005100048C04AC08091D00180FF3CC082E491E095
:1005200045C08091D00180FD28C02AC08091D001B3
:1005300080FD19C08FE591E039C08091D00180FD28
:1005400008C00AC087E891E031C08091D00180FDE9
:1005500003C08DE791E02AC083E791E027C0809136
:10056000D00180FD03C089E691E020C081E991E0DF
:100570001DC08091D00180FD03C085E591E016C0CB
:100580008CE491E013C08091D00180FD03C08BE921
:1005900091E00CC089E391E009C08091D00180FD19
:1005A00003C08FE291E002C086E291E00E948101E7
:1005B000089585EA91E00E948101089510929000CB
:1005C00083E389B980E98AB986E08093950008952C
:1005D0001F920F920FB60F9211248F939F9388B39F
:1005E0008F7988BB80E593EC0197F1F78091D0017A
:1005F0009091D10101969093D1018093D0011092F6
:10060000D3011092D2019F918F910F900FBE0F9046
:100610001F9018951F93CF93DF9380E787BB83E0EC
:100620008093610010E118BB109262008FEF84BBD1
:1006300085BB8FE0809364008093650010929000EA
:1006400083E389B980E98AB986E0809395000E94A6
:100650008C0081E00E94700083EB91E00E94810198
:1006600082E085BF19BF7894C9E1D0E08091620033
:100670008160809362008091D2019091D3010196B4
:100680009093D3018093D2010E9449028091D001BE
:1006900080FD02C0C59A01C0C69A80E197E2FE01C2
:1006A0003197F1F70197D9F788B38F7988BB80919B
:1006B00062008E7F8093620088E99AE3FE013197A1
:1006C000F1F70197D9F78091D4019091D501892B49
:1006D00069F2809162008D7F809362001092D50153
:1006E0001092D401C3CFAA1BBB1B51E107C0AA1FA4
:1006F000BB1FA617B70710F0A61BB70B881F991FC3
:100700005A95A9F780959095BC01CD010895F8946C
:02071000FFCF19
:10071200706F7374696F6E20302D3135006F626AAD
:1007220065637420646574656374656400646973E9
:10073200743D00636D00616E676C653A3330006131
:100742006E676C653A33333000616E676C653A36BA
:100752003000616E676C653A33303000616E676CF1
:10076200653A393000616E676C653A323730006144
:100772006E676C653A31323000616E676C653A3291
:10078200343000616E676C653A31353000616E67F6
:100792006C653A32313000616E676C653A313830DF
:1007A20000616E676C653D31323000616E676C6569
:1007B2003D33303000616E676C653A3020646567A6
:1007C200202000207363616E6E696E672E2E2E2EBE
:0E07D2002E2E2E2E00FEFDFBF7EFDFBF7F0068
:00000001FF
